:020000040800F2
:10000000000002205D44000841430008434300080B
:10001000454300084743000849430008000000002A
:100020000000000000000000000000004B4300083A
:100030004D430008000000004F43000851430008F2
:10004000AD440008AD440008AD440008AD440008CC
:10005000AD440008AD440008AD440008AD440008BC
:10006000AD440008AD440008AD440008AD440008AC
:10007000AD440008AD440008AD440008AD4400089C
:10008000AD440008AD440008AD440008AD4400088C
:10009000AD440008AD440008AD440008AD4400087C
:1000A000AD4400085943000869430008AD44000806
:1000B000AD440008AD440008AD440008AD4400085C
:1000C000AD440008AD440008AD440008AD4400084C
:1000D000AD440008794300088943000899430008AB
:1000E000A9430008AD440008AD440008AD44000831
:1000F000AD440008AD440008AD440008AD4400081C
:10010000AD440008AD440008AD440008AD4400080B
:10011000B5430008AD440008AD440008AD440008F4
:10012000AD440008AD440008AD440008AD440008EB
:10013000AD4400080000000000000000AD440008CD
:10014000AD440008AD440008AD440008AD440008CB
:10015000AD440008AD440008AD440008C5430008A4
:10016000AD440008AD440008AD440008AD440008AB
:10017000AD440008AD440008AD4400080000000094
:1001800000000000AD440008000000000000000076
:10019000AD4400080000000000000000AD4400086D
:1001A000000000000000000000000000AD44000856
:1001B000AD440008AD440008AD440008AD4400085B
:0401C000AD44000842
:1001D00010B5054C237833B9044B13B10448AFF381
:1001E00000800123237010BD1019002000000000C2
:1001F000BC7D000808B5034B1BB103490348AFF3AE
:10020000008008BD0000000014190020BC7D00081B
:1002100081F0004102E000BF83F0004330B54FEAB7
:1002200041044FEA430594EA050F08BF90EA020F24
:100230001FBF54EA000C55EA020C7FEA645C7FEAB7
:10024000655C00F0E2804FEA5454D4EB5555B8BFDA
:100250006D420CDD2C4480EA020281EA030382EA4B
:10026000000083EA010180EA020281EA0303362DDD
:1002700088BF30BD11F0004F4FEA01314FF4801CB0
:100280004CEA113102D0404261EB410113F0004FC2
:100290004FEA03334CEA133302D0524263EB430379
:1002A00094EA050F00F0A780A4F10104D5F1200E17
:1002B0000DDB02FA0EFC22FA05F2801841F1000172
:1002C00003FA0EF2801843FA05F359410EE0A5F146
:1002D00020050EF1200E012A03FA0EFC28BF4CF077
:1002E000020C43FA05F3C01851EBE37101F000452D
:1002F00007D54FF0000EDCF1000C7EEB00006EEB3A
:100300000101B1F5801F1BD3B1F5001F0CD34908C3
:100310005FEA30004FEA3C0C04F101044FEA44521A
:1003200012F5800F80F09A80BCF1004F08BF5FEAA1
:10033000500C50F1000041EB045141EA050130BD81
:100340005FEA4C0C404141EB010111F4801FA4F124
:100350000104E9D191F0000F04BF01460020B1FA79
:1003600081F308BF2033A3F10B03B3F120020CDAB1
:100370000C3208DD02F1140CC2F10C0201FA0CF08F
:1003800021FA02F10CE002F11402D8BFC2F1200CF4
:1003900001FA02F120FA0CFCDCBF41EA0C019040AA
:1003A000E41AA2BF01EB0451294330BD6FEA0404F3
:1003B0001F3C1CDA0C340EDC04F11404C4F12002DE
:1003C00020FA04F001FA02F340EA030021FA04F3F0
:1003D00045EA030130BDC4F10C04C4F1200220FA47
:1003E00002F001FA04F340EA0300294630BD21FA85
:1003F00004F0294630BD94F0000F83F4801306BF4B
:1004000081F480110134013D4EE77FEA645C18BF3E
:100410007FEA655C29D094EA050F08BF90EA020FD5
:1004200005D054EA000C04BF1946104630BD91EACD
:10043000030F1EBF0021002030BD5FEA545C05D1D0
:100440004000494128BF41F0004130BD14F580040F
:100450003CBF01F5801130BD01F0004545F0FE4183
:1004600041F470014FF0000030BD7FEA645C1ABFB8
:10047000194610467FEA655C1CBF0B46024650EAEF
:10048000013406BF52EA033591EA030F41F400211B
:1004900030BD00BF90F0000F04BF0021704730B5A1
:1004A0004FF4806404F132044FF000054FF0000176
:1004B00050E700BF90F0000F04BF0021704730B537
:1004C0004FF4806404F1320410F0004548BF40420C
:1004D0004FF000013EE700BF42004FEAE2014FEA61
:1004E00031014FEA02701FBF12F07F4393F07F4F3C
:1004F00081F06051704732F07F4208BF704793F03F
:100500007F4F04BF41F40021704730B54FF4607451
:1005100001F0004521F000411CE700BF50EA010254
:1005200008BF704730B54FF000050AE050EA0102FD
:1005300008BF704730B511F0004502D5404261EB6D
:1005400041014FF4806404F132045FEA915C3FF4AE
:10055000D8AE4FF003025FEADC0C18BF03325FEA4B
:10056000DC0C18BF033202EBDC02C2F1200300FAFC
:1005700003FC20FA02F001FA03FE40EA0E0021FA21
:1005800002F11444BDE600BF70B54FF0FF0C4CF40F
:10059000E06C1CEA11541DBF1CEA135594EA0C0FC1
:1005A00095EA0C0F00F0DEF82C4481EA030621EAFC
:1005B0004C5123EA4C5350EA013518BF52EA033537
:1005C00041F4801143F4801338D0A0FB02CE4FF0E9
:1005D0000005E1FB02E506F00042E0FB03E54FF019
:1005E0000006E1FB03569CF0000F18BF4EF0010E11
:1005F000A4F1FF04B6F5007F64F5407404D25FEA0D
:100600004E0E6D4146EB060642EAC62141EA5551BF
:100610004FEAC52040EA5E504FEACE2EB4F1FD0C01
:1006200088BFBCF5E06F1ED8BEF1004F08BF5FEA7F
:10063000500E50F1000041EB045170BD06F0004631
:1006400046EA010140EA020081EA0301B4EB5C04DE
:10065000C2BFD4EB0C0541EA045170BD41F48011D6
:100660004FF0000E013C00F3AB8014F1360FDEBFFB
:10067000002001F0004170BDC4F10004203C35DAD7
:100680000C341BDC04F11404C4F1200500FA05F35A
:1006900020FA04F001FA05F240EA020001F00042FB
:1006A00021F0004110EBD37021FA04F642EB060171
:1006B0005EEA430E08BF20EAD37070BDC4F10C049B
:1006C000C4F1200500FA04F320FA05F001FA04F25F
:1006D00040EA020001F0004110EBD37041F100014B
:1006E0005EEA430E08BF20EAD37070BDC4F1200556
:1006F00000FA05F24EEA020E20FA04F301FA05F2BE
:1007000043EA020321FA04F001F0004121FA04F265
:1007100020EA020000EBD3705EEA430E08BF20EA35
:10072000D37070BD94F0000F0FD101F0004640006F
:1007300041EB010111F4801F08BF013CF7D041EAF1
:10074000060195F0000F18BF704703F000465200F5
:1007500043EB030313F4801F08BF013DF7D043EAC6
:100760000603704794EA0C0F0CEA135518BF95EA7C
:100770000C0F0CD050EA410618BF52EA4306D1D103
:1007800081EA030101F000414FF0000070BD50EA22
:10079000410606BF1046194652EA430619D094EAAC
:1007A0000C0F02D150EA013613D195EA0C0F05D196
:1007B00052EA03361CBF104619460AD181EA0301EA
:1007C00001F0004141F0FE4141F470014FF00000A2
:1007D00070BD41F0FE4141F4780170BD70B54FF03D
:1007E000FF0C4CF4E06C1CEA11541DBF1CEA1355BD
:1007F00094EA0C0F95EA0C0F00F0A7F8A4EB05049F
:1008000081EA030E52EA03354FEA013100F0888095
:100810004FEA03334FF0805545EA131343EA12635E
:100820004FEA022245EA111545EA10654FEA002613
:100830000EF000419D4208BF964244F1FD0404F5CC
:10084000407402D25B084FEA3202B61A65EB030528
:100850005B084FEA32024FF480104FF4002CB6EBE5
:10086000020E75EB030E22BFB61A754640EA0C0065
:100870005B084FEA3202B6EB020E75EB030E22BFA5
:10088000B61A754640EA5C005B084FEA3202B6EBE6
:10089000020E75EB030E22BFB61A754640EA9C00A5
:1008A0005B084FEA3202B6EB020E75EB030E22BF75
:1008B000B61A754640EADC0055EA060E18D04FEA33
:1008C000051545EA16754FEA06164FEAC30343EAD3
:1008D00052734FEAC2025FEA1C1CC0D111F4801FA0
:1008E0000BD141EA00014FF000004FF0004CB6E799
:1008F00011F4801F04BF01430020B4F1FD0C88BF38
:10090000BCF5E06F3FF6AFAEB5EB030C04BFB6EB42
:10091000020C5FEA500C50F1000041EB045170BD35
:100920000EF0004E4EEA113114EB5C04C2BFD4EB62
:100930000C0541EA045170BD41F480114FF0000EE6
:10094000013C90E645EA060E8DE60CEA135594EA62
:100950000C0F08BF95EA0C0F3FF43BAF94EA0C0F65
:100960000AD150EA01347FF434AF95EA0C0F7FF4DA
:1009700025AF104619462CE795EA0C0F06D152EA2E
:1009800003353FF4FDAE1046194622E750EA410612
:1009900018BF52EA43067FF4C5AE50EA41047FF423
:1009A0000DAF52EA43057FF4EBAE12E74FF0FF3C88
:1009B00006E000BF4FF0010C02E000BF4FF0010C59
:1009C0004DF804CD4FEA410C7FEA6C5C4FEA430CD2
:1009D00018BF7FEA6C5C1BD001B050EA410C0CBF21
:1009E00052EA430C91EA030F02BF90EA020F002083
:1009F000704710F1000F91EA030F58BF994208BFEA
:100A000090422CBFD8176FEAE37040F001007047A6
:100A10004FEA410C7FEA6C5C02D150EA013C07D1FD
:100A20004FEA430C7FEA6C5CD6D152EA033CD3D048
:100A30005DF8040B704700BF8446104662468C4642
:100A40001946634600E000BF01B5FFF7B7FF002875
:100A500048BF10F1000F01BD4DF808EDFFF7F4FF9E
:100A60000CBF012000205DF808FB00BF4DF808ED29
:100A7000FFF7EAFF34BF012000205DF808FB00BF4C
:100A80004DF808EDFFF7E0FF94BF012000205DF86E
:100A900008FB00BF4DF808EDFFF7CEFF94BF012023
:100AA00000205DF808FB00BF4DF808EDFFF7C4FF1C
:100AB00034BF012000205DF808FB00BF4FEA410C65
:100AC0007FEA6C5C02D150EA013C0AD14FEA430C48
:100AD0007FEA6C5C02D152EA033C02D14FF0000085
:100AE00070474FF0010070474FEA4102B2F1E04316
:100AF00024BFB3F5001CDCF1FE5C0DD901F0004C05
:100B00004FEAC0024CEA5070B2F1004F40EB830054
:100B100008BF20F00100704711F0804F21D113F180
:100B20003872BCBF01F00040704741F480114FEAB9
:100B30005252C2F11802C2F1200C10FA0CF320FA42
:100B400002F018BF40F001004FEAC1234FEAD3235F
:100B500003FA0CFC40EA0C0023FA02F34FEA4303C9
:100B6000CCE77FEA625307D150EA01331EBF4FF052
:100B7000FE4040F44000704701F0004040F0FE406D
:100B800040F40000704700BF53B94AB9002908BFBC
:100B900000281CBF4FF0FF314FF0FF3000F072B95A
:100BA000ADF1080C6DE904CE00F006F8DDF804E0C4
:100BB000DDE9022304B070472DE9F047089E0446A2
:100BC0008846002B4BD18A42154667D9B2FA82F289
:100BD0004AB1C2F1200701FA02F320FA07F7954063
:100BE00047EA030894404FEA154E230CB8FBFEF782
:100BF0001FFA85FC0EFB178843EA084307FB0CF13C
:100C0000994209D9EB1807F1FF3080F01B81994216
:100C100040F21881023F2B445B1AA4B2B3FBFEF0F2
:100C20000EFB103344EA034400FB0CFCA44509D935
:100C30002C1900F1FF3380F00781A44540F20481B4
:100C400002382C4440EA0740A4EB0C0400271EB1F4
:100C5000D4400023C6E900433946BDE8F0878B4203
:100C600009D9002E00F0EB800027C6E900013846C4
:100C70003946BDE8F087B3FA83F7002F47D18B429E
:100C800002D3824200F2FA80841A61EB030301204E
:100C90009846002EE0D0C6E90048DDE702B9FFDE45
:100CA000B2FA82F2002A40F08F80491B4FEA154EBB
:100CB0001FFA85F80127B1FBFEFC230C0EFB1C116B
:100CC00043EA014308FB0CF1994207D9EB180CF1F8
:100CD000FF3002D2994200F2CD808446591AA3B265
:100CE000B1FBFEF00EFB101443EA044408FB00F8CD
:100CF000A04507D92C1900F1FF3302D2A04500F21C
:100D0000B6801846A4EB080440EA0C409FE7C7F100
:100D1000200CBB4022FA0CFE4EEA030E01FA07F447
:100D200020FA0CF521FA0CF34FEA1E482543B3FBD9
:100D3000F8F92C0C08FB19331FFA8EFA44EA034326
:100D400009FB0AF49C4202FA07F200FA07F10BD9F8
:100D50001EEB030309F1FF3080F087809C4240F2D4
:100D60008480A9F1020973441B1BADB2B3FBF8F0F8
:100D700008FB103345EA034400FB0AFAA24508D9F0
:100D80001EEB040400F1FF336BD2A24569D902388F
:100D9000744440EA0940A0FB0289A4EB0A044C45D4
:100DA000C2464B4654D351D0002E69D0B1EB0A0550
:100DB00064EB030404FA0CFCFD40FC404CEA05051E
:100DC000C6E90054002747E7C2F1200320FA03F7E1
:100DD000954001FA02F021FA03F34FEA154E384329
:100DE000010CB3FBFEF71FFA85F80EFB173341EA3F
:100DF000034107FB08F38B4204FA02F407D9691890
:100E000007F1FF3C2FD28B422DD9023F2944CB1A48
:100E100081B2B3FBFEF00EFB103341EA034100FB4D
:100E200008F38B4207D9691800F1FF3C17D28B42B7
:100E300015D902382944C91A40EA07473BE7374623
:100E4000304609E70746E7E61846FBE64145ABD2E0
:100E5000B8EB020A69EB0E0201381346A4E76046BC
:100E6000E9E7184695E76746D1E781467CE702380F
:100E70002C4447E7ACF1020C2B442FE7384608E737
:100E80003746E9E6704700BF034613F8012B002AF6
:100E9000FBD1181A01387047000000000000000064
:100EA00001F0FF01102A2BDB10F0070F08D010F81B
:100EB000013B013A8B422DD010F0070F42B3F6D11F
:100EC000F0B441EA012141EA014122F007047FF038
:100ED00000070023F0E80256083C85EA010586EA8F
:100EE000010685FA47F5A3FA87F586FA47F6A5FACB
:100EF00087F68EB9EED1F0BC01F0FF0102F00702D7
:100F000032B110F8013B013A83EA010313B1F8D181
:100F10000020704701387047002D06BF3546033862
:100F2000073815F0010F07D1013015F4807F02BF9B
:100F3000013015F4C03F0130F0BC0138704700BFEC
:100F40004FEA410212F5001215D211D56FF47873F1
:100F5000B3EB625212D94FEAC12343F0004343EA94
:100F6000505311F0004F23FA02F018BF404270476F
:100F70004FF00000704750EA013005D111F00040F9
:100F800008BF6FF0004070474FF00000704700BF8F
:100F900010B504460E4B18784FF47A73B3FBF0F398
:100FA0000C4A1068B0FBF3F000F026FB68B90F2C78
:100FB00001D901200AE0002221464FF0FF3000F065
:100FC000D9FA034B5C60002000E0012010BD00BF97
:100FD000000000203817002008B50B4B1A6842F4B7
:100FE00000721A601A6842F480621A601A6842F449
:100FF00080721A60032000F0ABFA0020FFF7C8FFF0
:1010000002F0B2FF002008BD003C0240034A116814
:10101000034B1B780B441360704700BF001A00207D
:1010200000000020014B1868704700BF001A002024
:101030004A4B5A6822F440325A605A6841680A435F
:101040005A600268536823F48073536002685368DF
:10105000016943EA012353600268536823F0407337
:1010600053600268536881680B4353600268936859
:1010700023F40063936002689368C1680B43936034
:10108000826A374B9A424BD00268936823F07063B0
:10109000936002689368816A0B4393600268936867
:1010A00023F04053936002689368C16A0B439360D6
:1010B0000268936823F00203936002689368017EDC
:1010C00043EA4103936090F82030002B33D102684B
:1010D000536823F4006353600268D36A23F47003F7
:1010E000D3620168CB6AC269013A43EA0253CB6218
:1010F0000268936823F4007393600268936890F821
:10110000301043EA412393600268936823F48063BC
:10111000936002689368416943EA81239360704752
:101120000268936823F0706393600268936823F009
:1011300040539360BCE70268536843F40063536014
:101140000268536823F46043536001684B68426A45
:10115000013A43EA42334B60BEE700BF002301403F
:101160000100000F38B310B50446036C43B1236C83
:1011700013F0100F0BD00120002384F83C3010BD79
:1011800002F012FF0023636484F83C30EFE7236C25
:1011900023F4885323F0020343F002032364204620
:1011A000FFF746FF00206064236C23F0030343F045
:1011B00001032364E0E701207047000082B00023B0
:1011C000019390F83C30012B7DD0012380F83C3016
:1011D00003689A6812F0010F13D19A6842F0010275
:1011E0009A603E4B1B683E4AA2FB03239B0C03EB19
:1011F0004303019302E0019B013B0193019B002B00
:10120000F9D10268936813F0010F5ED0036C23F4E8
:10121000E06323F0010343F480730364536813F421
:10122000806F05D0036C23F4405343F48053036470
:10123000036C13F4805F1BD0436C23F006034364FC
:10124000002380F83C306FF022031360254B5B686D
:1012500013F01F0F27D10368234A934219D002F5D8
:101260008072934207D0214A93420BD000202DE098
:1012700000234364E4E702F50072526812F01F0F86
:1012800007D0F0E702F58072526802F01F020F2AC1
:101290001ED89A6812F0405F1CD19A6842F08042D2
:1012A0009A60002012E003680F4A934201D00020A8
:1012B0000CE09A6812F0405F0ED19A6842F08042CA
:1012C0009A60002002E0022000E0002002B0704797
:1012D0000020FBE70020F9E70020F7E7381700209F
:1012E00083DE1B4300230140002001400022014017
:1012F00003689A6812F4806F03D09B6813F4807FB0
:101300001CD170B50D460446FFF78CFE06462368D7
:101310001A6812F0020F1AD1B5F1FF3FF7D025B1CC
:10132000FFF780FE801BA842F1D9236C43F0040331
:101330002364002384F83C3003202DE0036C43F049
:1013400020030364002380F83C30012070476FF0D5
:1013500012021A60236C43F40073236423689A68B2
:1013600012F0405F17D1227EBAB9DA6A12F4700F18
:1013700003D09B6813F4806F11D1236C23F4807326
:101380002364236C13F4805F0BD1236C43F00103BF
:101390002364002000E0002070BD0020FCE7002056
:1013A000FAE70020F8E70368D86C704730B482B0E1
:1013B0000023019390F83C30012B00F0BD80012305
:1013C00080F83C300B68092B3ED90568EA689BB26F
:1013D00003EB43031E3B072404FA03F322EA03034F
:1013E000EB600568EA688C680B8803EB43031E3BDF
:1013F00004FA03F31343EB604B68062B3AD80568F5
:101400006A6B03EB8303053B1F2404FA03F322EA10
:1014100003036B6305686A6B4B6803EB8303053B4F
:101420000C8804FA03F313436B630268434B9A423C
:1014300050D00268414B9A4259D0002380F83C308A
:10144000184602B030BC704705682A699BB203EBAE
:101450004303072404FA03F322EA03032B6105681C
:101460002A698C680B8803EB430304FA03F31343E4
:101470002B61C1E70C2B16D805682A6B03EB83039D
:10148000233B1F2404FA03F322EA03032B630568BA
:101490002A6B4B6803EB8303233B0C8804FA03F3AA
:1014A00013432B63C1E70568EA6A03EB8303413BFF
:1014B0001F2404FA03F322EA0303EB620568EA6AD5
:1014C0004B6803EB8303413B0C8804FA03F313439B
:1014D000EB62AAE70B68122BABD1194B5A6822F4C6
:1014E00000025A605A6842F480025A60A1E70B6811
:1014F000144A934201D0112B9FD1114B5A6822F408
:1015000080025A605A6842F400025A600A680D4B21
:101510009A4292D10C4B1B680C4AA2FB03239B0CF2
:1015200003EB83035A00019202E0019B013B01930C
:10153000019B002BF9D180E7022082E700200140C7
:1015400000230140120000103817002083DE1B43E7
:10155000074AD36823F4E0631B041B0C000200F469
:10156000E060184340F0BF6040F40030D060704746
:1015700000ED00E030B4174BDB68C3F30223C3F186
:101580000704042C28BF04241D1D062D18D9033B75
:101590004FF0FF3505FA04F421EA0401994005FAF9
:1015A00003F322EA0303194300280BDB0901C9B244
:1015B00000F1604000F5614080F8001330BC7047D6
:1015C0000023E5E700F00F000901C9B2024B1954EE
:1015D000F4E700BF00ED00E014ED00E0002807DBB9
:1015E00000F01F02400901239340024A42F82030D4
:1015F000704700BF00E100E00138B0F1807F0AD2FF
:10160000064B5860064AF02182F8231000209860AB
:1016100007221A6070470120704700BF10E000E009
:1016200000ED00E090F83530DBB2022B03D08023D0
:10163000436501207047052380F835300268136840
:1016400023F00103136000207047000000230F2BDC
:1016500000F2D180F0B482B039E0062200E000222E
:10166000B2403A430234644E46F82420634A146878
:10167000EA4302EA04064F6817F4803F01D045EAC6
:1016800004065E4C2660646802EA04064F6817F49C
:10169000003F01D045EA0406584C6660A46802EA9F
:1016A00004064F6817F4801F01D045EA0406534C26
:1016B000A660E46822404E6816F4001F01D045EA97
:1016C00004024E4CE26001330F2B00F291800122A4
:1016D0009A400C6804EA0205AA42F4D14C68022C34
:1016E00001D0122C10D1DE08083650F826C003F0C5
:1016F0000704A7000F24BC402CEA040C0C69BC4072
:1017000044EA0C0440F8264004685F000326BE400B
:10171000F64306EA040C4C6804F00304BC4044EAB7
:101720000C0404604C6804F1FF3CBCF1010F03D9C8
:10173000112C01D0122C10D1846806EA040CCC685C
:10174000BC4044EA0C048460446824EA02024C6809
:10175000C4F300149C4014434460C26816408A6875
:10176000BA403243C2604A6812F0805FABD00022B8
:101770000192234A546C44F480445464526C02F441
:1017800080420192019A9C08A61C1B4A52F82670BE
:1017900003F0030296000F22B24027EA0207194A1B
:1017A00090423FF45CAF02F58062904216D002F5A1
:1017B0008062904214D002F58062904212D002F50D
:1017C0008062904210D002F5806290420ED002F505
:1017D000806290423FF441AF072241E701223FE798
:1017E00002223DE703223BE7042239E7052237E7DF
:1017F00002B0F0BC7047704700380140003C014027
:10180000003802400000024012B9090481617047AB
:1018100081617047436931EA030301D081617047F8
:10182000090481617047000008B5054B5B690342FC
:1018300000D108BD024B586101F04CFEF9E700BF32
:10184000003C0140002800F09D8070B504464F4BDD
:101850001B6803F00F038B4209D2CBB24B4A1370C3
:10186000136803F00F038B4201D0012070BD236881
:1018700013F0020F17D013F0040F04D0444A9368FA
:1018800043F4E0539360236813F0080F04D0404AF8
:10189000936843F4604393603D4A936823F0F003F8
:1018A000A068034393600D46236813F0010F32D004
:1018B0006368012B21D09A1E012A25D9344A126867
:1018C00012F0020F60D032498A6822F003021343FB
:1018D0008B60FFF7A7FB06462D4B9B6803F00C03BC
:1018E0006268B3EB820F16D0FFF79CFB801B41F2BE
:1018F00088339842F0D90320B8E7254A126812F4D9
:10190000003FE0D10120B1E7214A126812F0007FC8
:10191000D9D10120AAE71D4B1B6803F00F03AB428E
:1019200009D9EAB2194B1A701B6803F00F03AB42D6
:1019300001D001209AE7236813F0040F06D0144A5F
:10194000936823F4E053E1680B439360236813F03A
:10195000080F07D00E4A936823F46043216943EAD5
:10196000C103936000F07EFA094B9B68C3F3031335
:10197000084AD35CD840084B18600020FFF708FBEA
:10198000002073E70120704701206FE7003C024010
:1019900000380240D87D000838170020014B186835
:1019A000704700BF3817002008B5FFF7F7FF044B5A
:1019B0009B68C3F38223034AD35CD84008BD00BFB1
:1019C00000380240E87D000808B5FFF7E7FF044B48
:1019D0009B68C3F34233034AD35CD84008BD00BFC1
:1019E00000380240E87D0008F0B583B00446036883
:1019F00013F0010F0CD0964AD2F88C3023F0C0635C
:101A0000816B0B43C2F88C30836B3BB3002600E044
:101A10000026236813F0020F0BD08D4AD2F88C30C9
:101A200023F0C053E16B0B43C2F88C30E36B03B976
:101A30000126236813F0040F14D0854AD2F88C30A5
:101A400023F44013216B0B43C2F88C30236BB3F5A6
:101A5000801F05D0002B7BD0002504E00126D8E7AD
:101A60000126F7E70025236813F0080F0ED0784A07
:101A7000D2F88C3023F44003616B0B43C2F88C30F6
:101A8000636BB3F5800F65D003B90125236813F0AC
:101A9000200F61D1236813F0100F03D094F8582061
:101AA0006C4B1A60236813F0800F08D0684AD2F894
:101AB000943023F44003E16C0B43C2F89430236864
:101AC00013F0400F08D0624AD2F8943023F08063BC
:101AD000A16C0B43C2F89430236813F4807F0DD0BF
:101AE0005B4AD2F8943023F00063616D0B43C2F877
:101AF0009430636DB3F1006F00F09580236813F4A8
:101B0000007F08D0524AD2F8943023F08053616CA1
:101B10000B43C2F89430236813F4806F0CD04C4A06
:101B2000D2F8943023F00053216D0B43C2F8943067
:101B3000236DB3F1005F78D0002E76D12368B3F522
:101B4000006F72D0002D40F02281002003B0F0BD64
:101B5000012588E7012697E7002301933C4B1A6C87
:101B600042F080521A641B6C03F080530193019B76
:101B7000394A136843F480731360FFF753FA07463A
:101B8000354B1B6813F4807F06D1FFF74BFAC01B5F
:101B90000228F5D90320D9E72D4B1B6F13F44073AE
:101BA00012D0226C02F440729A420DD0284B1A6F68
:101BB00022F44072294901200860002008601A6759
:101BC0001B6F13F0010F12D1236C03F44072B2F5B6
:101BD000407F1DD01E4A936823F4F81393601C497C
:101BE0000B6F226CC2F30B0213430B6752E7FFF734
:101BF00019FA0746164B1B6F13F0020FE4D1FFF7DB
:101C000011FAC01B41F288339842F3D903209DE7B3
:101C10000F498A6822F4F81223F0704323F44073CA
:101C200013438B60DBE7012568E70D4B00221A6048
:101C3000FFF7F8F90646064B1B6813F0006F11D04A
:101C4000FFF7F0F9801B0228F5D903207EE700BFDB
:101C500000380240E011474200700040400E474209
:101C600068004742236813F0010F01D0A26B22B134
:101C700013F0020F15D0E36B9BB9774AD2F88400BA
:101C8000D2F884106368A66843EA861300F44030F3
:101C9000034301F070610B43616943EA0173C2F8C9
:101CA0008430236813F0040F03D0226BB2F5801F39
:101CB00006D013F0080F20D0636BB3F5800F1CD152
:101CC000654AD2F88400D2F884106368A66843EAB3
:101CD000861300F440300343206943EA006301F0B7
:101CE000E0410B43C2F88430D2F88C3023F01F035C
:101CF000A16A01390B43C2F88C30236813F4806F5A
:101D000003D0236DB3F1005F28D0236813F4006F74
:101D100011D06368A26843EA8213E2685208013A6C
:101D200043EA0243226943EA0263626943EA0273B7
:101D3000494AC2F88430494B01221A60FFF772F910
:101D40000646454B1B6813F0006F7FF4FBAEFFF7B0
:101D500069F9801B0228F4D90320F7E63E48D0F841
:101D60008430C3F301435A1CD0F884606368A168CF
:101D700043EA8113E1684908013943EA014343EA30
:101D8000426306F0E0421343C0F88430BDE7344BB1
:101D900000221A60FFF746F905462F4B1B6813F027
:101DA000005F06D0FFF73EF9401B0228F5D903205B
:101DB000CCE6236813F0040F01D0226B22B113F09C
:101DC000080F1AD0636BC3B9234AD2F88810A369ED
:101DD000E06943EA801301F440310B43616A43EA4E
:101DE0000163C2F88830D2F88C3023F4F853E16AEA
:101DF000013943EA0123C2F88C30236813F4807F51
:101E000003D0636DB3F1006F11D0154B01221A603E
:101E1000FFF708F90446104B1B6813F0005F18D158
:101E2000FFF700F9001B0228F5D903208EE60A48C7
:101E3000D0F88810A369E26943EA8213226A520843
:101E4000013A43EA024301F070621343C0F888305C
:101E5000DBE700207AE600BF003802406800474216
:101E6000700047422DE9F04B5C4B9B6803F00C037C
:101E7000082B07D00C2B5BD0042B00F0AD8058480A
:101E8000BDE8F08B554B5A6802F03F025B6813F4D3
:101E9000800F2AD0514B5B68C3F388131E4600277E
:101EA0005C010025E41A65EB0705A90141EA94618C
:101EB000A001001B61EB0501CB0043EA5073C40095
:101EC000A01943EB07014B0243EAD05344022046DA
:101ED00019460023FEF758FE404B5B68C3F30143ED
:101EE00001335B00B0FBF3F0CAE73C4B5B68C3F324
:101EF00088131E4600275C010025E41A65EB0705E0
:101F0000A90141EA9461A001001B61EB0501CB002E
:101F100043EA5073C400A01943EB07018B0243EA64
:101F200090538402204619460023FEF72DFED3E786
:101F30002A4B5A6802F03F025B6813F4800F28D0E6
:101F4000264B5B68C3F388131E4600275C010025FF
:101F5000E41A65EB0705A90141EA9461A001001BA1
:101F600061EB0501CB0043EA5073C400A01943EBB9
:101F700007014B0243EAD05344022046194600238E
:101F8000FEF702FE154B5B68C3F30273B0FBF3F080
:101F900076E7124B5B68C3F388131E4600275C018B
:101FA0000025E41A65EB0705A90141EA9461A00147
:101FB000001B61EB0501CB0043EA5073C400A0197C
:101FC00043EB07018B0243EA9053840220461946F3
:101FD0000023FEF7D9FDD5E7024851E7003802405B
:101FE0000024F40000127A0070B582B00446036841
:101FF00013F0010F41D0A64B9B6803F00C03042B98
:1020000032D0A34B9B6803F00C03082B27D0A04BC6
:102010009B6803F00C030C2B59D06368B3F5803F29
:102020005BD0B3F5A02F5ED0994B1A6822F48032B2
:102030001A601A6822F480221A606368002B5CD050
:10204000FEF7F0FF0546924B1B6813F4003F14D1D6
:10205000FEF7E8FF401B6428F5D903209DE18C4B77
:102060005B6813F4800FD2D0894B1B6813F4003FD8
:1020700003D06368002B00F08D81236813F0020FFA
:1020800067D0834B9B6813F00C0F4AD0804B9B6842
:1020900003F00C03082B3FD07D4B9B6803F00C032F
:1020A0000C2B48D0E368002B74D07A4B01221A60C5
:1020B000FEF7B8FF0546764B1B6813F0020F60D1A0
:1020C000FEF7B0FF401B0228F5D9032065E1704BF5
:1020D0005B6813F4800FA0D0C6E76D4A136843F421
:1020E00080331360A9E76A4B1A6842F480221A60B1
:1020F0001A6842F480321A609FE7FEF793FF0546A4
:10210000634B1B6813F4003FB7D0FEF78BFF401BF7
:102110006428F5D9032040E15D4B5B6813F4800F20
:10212000BAD15B4B1B6813F0020F0AD0E368012B96
:1021300007D0012031E1564B5B6813F4800FB1D119
:10214000EFE7534A136823F0F803216943EAC10318
:102150001360236813F0080F40D0636963B34E4BDC
:1021600001221A60FEF75EFF0546494B5B6F13F0D4
:10217000020F33D1FEF756FF401B0228F5D903208A
:102180000BE1434A136823F0F803216943EAC103D2
:102190001360DEE73F4B00221A60FEF743FF05465F
:1021A0003B4B1B6813F0020FD3D0FEF73BFF401BE5
:1021B0000228F5D90320F0E0374B00221A60FEF721
:1021C00031FF0546324B5B6F13F0020F06D0FEF76E
:1021D00029FF401B0228F5D90320DEE0236813F015
:1021E000040F79D02A4B1B6C13F0805F33D100238E
:1021F0000193274B1A6C42F080521A641B6C03F057
:1022000080530193019B0125244B1B6813F4807FAD
:1022100023D0A368012B34D0052B41D01C4B1A6F5F
:1022200022F001021A671A6F22F004021A67A368EB
:10223000002B3FD0FEF7F6FE0646154B1B6F13F042
:10224000020F48D1FEF7EEFE801B41F28833984220
:10225000F3D90320A1E00025D6E7104A136843F420
:1022600080731360FEF7DEFE06460C4B1B6813F40A
:10227000807FCED1FEF7D6FE801B0228F5D9032041
:102280008BE0034A136F43F001031367CFE700BFEE
:102290000038024000004742800E47420070004074
:1022A000404B1A6F42F004021A671A6F42F00102A3
:1022B0001A67BCE7FEF7B6FE06463A4B1B6F13F0F3
:1022C000020F08D0FEF7AEFE801B41F28833984221
:1022D000F3D9032061E0E5B9A369002B5CD0314A52
:1022E000926802F00C02082A59D0022B17D02E4B0C
:1022F00000221A60FEF796FE04462A4B1B6813F074
:10230000007F45D0FEF78EFE001B0228F5D9032082
:1023100043E0244A136C23F080531364DCE7224B20
:1023200000221A60FEF77EFE05461E4B1B6813F066
:10233000007F06D0FEF776FE401B0228F5D9032069
:102340002BE0E369226A1343626A43EA8213A26ABA
:102350005208013A43EA0243E26A43EA0263226B0B
:1023600043EA02730F4A53600F4B01221A60FEF7D3
:1023700059FE04460B4B1B6813F0007F06D1FEF795
:1023800051FE001B0228F5D9032006E0002004E0DE
:10239000002002E0012000E0002002B070BD01201A
:1023A000FBE700BF003802406000474238B50446F2
:1023B0000268D36823F0A003D360FEF733FE05461E
:1023C0002368DB6813F0200F07D1FEF72BFE401BBC
:1023D000B0F57A7FF4D9032000E0002038BD38B58D
:1023E0000368DA6812F0400F01D0002038BD0446BF
:1023F0004FF0FF32DA60FEF715FE05462368DB6812
:1024000013F0400F07D1FEF70DFE401BB0F57A7FA9
:10241000F4D90320EAE70020E8E738B500285CD0CB
:102420000446437F002B40D0022363772368CA22EF
:102430005A62236853225A622046FFF7D0FF0546AE
:10244000002836D12268936823F4E00323F0400388
:10245000936021688A686368206903436069034365
:1024600013438B602368E2681A6122681369A168CC
:1024700043EA014313612268D36823F08003D360E9
:1024800023689B6813F0200F1BD02268136C23F481
:10249000802313642268136CA1690B4313642368BF
:1024A000FF225A620123637709E0037701F0B0FD50
:1024B000BAE72368FF225A6204236377012528467E
:1024C00038BD2046FFF772FF0028DED02368FF22C8
:1024D0005A62042363770125F1E70125EFE7037FC3
:1024E000012B2BD010B50446012303770223437739
:1024F0000368CA225A62036853225A62FFF76FFFC9
:10250000034690B921688A6842F010028A60216807
:10251000CA6822F08002CA602268FF21516201224B
:10252000627700222277184610BD2368FF225A6284
:1025300004236377002323770123F4E7022318465B
:1025400070470268D36843F00103D3600268936860
:1025500003F00703062B03D0136843F00103136055
:1025600000207047704770477047704710B50446A9
:1025700003681A6912F0020F11D0DA6812F0020F24
:102580000DD06FF002021A610123037703689B6983
:1025900013F0030F70D0FFF7E6FF002323772368C3
:1025A0001A6912F0040F12D0DA6812F0040F0ED07C
:1025B0006FF004021A610223237723689B6913F4E6
:1025C000407F5FD02046FFF7CEFF002323772368AC
:1025D0001A6912F0080F12D0DA6812F0080F0ED044
:1025E0006FF008021A61042323772368DB6913F074
:1025F000030F4ED02046FFF7B6FF00232377236852
:102600001A6912F0100F12D0DA6812F0100F0ED003
:102610006FF010021A61082323772368DB6913F433
:10262000407F3DD02046FFF79EFF0023237723689D
:102630001A6912F0010F03D0DA6812F0010F36D1D7
:1026400023681A6912F0800F03D0DA6812F0800F45
:1026500034D123681A6912F0400F03D0DA6812F0FF
:10266000400F32D123681A6912F0200F03D0DA68C4
:1026700012F0200F30D110BDFFF774FF2046FFF796
:1026800073FF8AE72046FFF76DFF2046FFF76CFFD8
:102690009BE72046FFF766FF2046FFF765FFACE7A4
:1026A0002046FFF75FFF2046FFF75EFFBDE76FF0B4
:1026B00001021A61204600F0D7FDC1E76FF08002E9
:1026C0001A61204600F08EF8C3E76FF040021A61ED
:1026D0002046FFF74AFFC5E76FF020021A61204647
:1026E00000F07FF8C7E700000368304A904212D03C
:1026F000B0F1804F0FD0A2F57C4290420BD002F592
:102700008062904207D002F58062904203D002F5C9
:102710007842904203D123F070034A681343234A5E
:1027200090422AD0B0F1804F27D0A2F57C4290424F
:1027300023D002F5806290421FD002F58062904261
:102740001BD002F57842904217D002F570529042A9
:1027500013D002F5806290420FD002F58062904261
:102760000BD0A2F59832904207D002F580629042D9
:1027700003D002F58062904203D123F44073CA680B
:10278000134323F080034A69134303608B68C362D9
:102790000B688362054B984203D003F5806398422F
:1027A00001D10B69036301234361704700000140BD
:1027B000A8B110B5044690F83D305BB1022384F80F
:1027C0003D30211D2068FFF78FFF012384F83D3045
:1027D000002010BD80F83C3001F04EFCEEE70120F7
:1027E0007047704770470268D36823F49073D360D2
:1027F0000268536923F001035361202380F83A30C3
:10280000704790F83930DBB2212B2AD18368B3F5B9
:10281000805F16D0036A5A1C02621A7803685A60F5
:10282000C38C013B9BB2C384EBB90268D36823F02D
:102830008003D3600268D36843F04003D360002074
:102840007047036A1B880268C3F308035360036977
:102850001BB9036A02330362E2E7036A01330362CE
:10286000DEE7022070470020704700002DE9F843A2
:1028700004460268136923F44053C1680B43136193
:1028800083680269134342691343C2691A430168AA
:10289000CB6823F4164323F00C031343CB60026888
:1028A000536923F4407381690B435361C369B3F5E2
:1028B000004F60D00368B84A934200F0148102F5DB
:1028C0008062934200F00F81FFF76EF800EB80000A
:1028D00000EB80006568AD00B0FBF5F5AF4FA7FBDE
:1028E00005356D092E01FFF75FF800EB800000EB66
:1028F00080006568AD00B0FBF5F9FFF755F800EB17
:10290000800000EB80006568AD00B0FBF5F5A7FB2B
:1029100005356D094FF0640808FB15952D0132351A
:10292000A7FB05356D0905F0F0053544FFF73CF8C8
:1029300000EB800000EB80006668B600B0FBF6F6A6
:10294000FFF732F800EB800000EB800063689B002B
:10295000B0FBF3F0A7FB0030400908FB10684FEA1A
:10296000081808F13208A7FB0837C7F34317236894
:102970002F449F600DE10368874A93425BD002F5C4
:102980008062934257D0FFF70FF800EB800000EB16
:10299000800065686D00B0FBF5F5804FA7FB05353D
:1029A0006D092E01FFF700F800EB800000EB8000BE
:1029B00065686D00B0FBF5F9FEF7F6FF00EB8000EF
:1029C00000EB800065686D00B0FBF5F5A7FB0535F1
:1029D0006D094FF0640808FB1595ED003235A7FB33
:1029E00005356D096D0005F4F8753544FEF7DCFF1B
:1029F00000EB800000EB800066687600B0FBF6F626
:102A0000FEF7D2FF00EB800000EB800063685B0004
:102A1000B0FBF3F3A7FB03235B0908FB13684FEA42
:102A2000C80808F13208A7FB0837C7F34217236824
:102A30002F449F60ADE0FEF7C7FF00EB800000EB86
:102A4000800065686D00B0FBF5F5544FA7FB0535B8
:102A50006D092E01FEF7B8FF00EB800000EB80004F
:102A600065686D00B0FBF5F9FEF7AEFF00EB800086
:102A700000EB800065686D00B0FBF5F5A7FB053540
:102A80006D094FF0640808FB1595ED003235A7FB82
:102A900005356D096D0005F4F8753544FEF794FFB2
:102AA00000EB800000EB800066687600B0FBF6F675
:102AB000FEF78AFF00EB800000EB800063685B009C
:102AC000B0FBF3F3A7FB03235B0908FB13684FEA92
:102AD000C80808F13208A7FB0837C7F34217236874
:102AE0002F449F6055E0FEF76FFF00EB800000EB86
:102AF00080006568AD00B0FBF5F5284FA7FB0535F4
:102B00006D092E01FEF760FF00EB800000EB8000F6
:102B10006568AD00B0FBF5F9FEF756FF00EB8000ED
:102B200000EB80006568AD00B0FBF5F5A7FB05354F
:102B30006D094FF0640808FB15952D013235A7FB90
:102B400005356D0905F0F0053544FEF73DFF00EB56
:102B5000800000EB80006668B600B0FBF6F6FEF77A
:102B600033FF00EB800000EB800063689B00B0FB4C
:102B7000F3F0A7FB0030400908FB10684FEA081883
:102B800008F13208A7FB0837C7F3431723682F441F
:102B90009F60BDE8F88300BF001001401F85EB5126
:102BA0002DE9F04105460F4616469846069C2B68CF
:102BB0001B6837EA03030CBF01230023B3421DD176
:102BC000B4F1FF3FF3D02CB1FEF72CFAA0EB0800D4
:102BD000A042ECD92A68D36823F4D073D3602A6862
:102BE000536923F001035361202385F8393085F8B8
:102BF0003A30002385F83830032000E00020BDE89B
:102C0000F08158B310B5044690F839300BB3242343
:102C100084F839302268D36823F40053D360204607
:102C2000FFF724FE2268136923F49043136122689E
:102C3000536923F02A0353612268D36843F4005395
:102C4000D3600020E063202384F8393084F83A30E0
:102C500010BD80F8383001F049FAD8E701207047FC
:102C60002DE9F04182B01E4690F83930DBB2202BBE
:102C700055D104460D469046002955D0002A55D01E
:102C800090F83830012B53D0012380F838300023DE
:102C9000C363212380F83930FEF7C4F90746A4F84E
:102CA0002480A4F8268010E000963B460022802174
:102CB0002046FFF775FF00283CD12B882268C3F31C
:102CC000080353602369C3B90235E38C9BB2B3B1E7
:102CD000E38C013B9BB2E384A368B3F5805FE3D050
:102CE00000963B46002280212046FFF759FF18BB83
:102CF0002A7823685A600135E7E70135E5E7009651
:102D00003B46002240212046FFF74AFF0346A8B970
:102D1000202284F83920002284F8382000E00223A1
:102D2000184602B0BDE8F0810123F9E70123F7E777
:102D30000223F5E70323F3E70323F1E70323EFE798
:102D400090F83930DBB2202B16D1B9B1C2B190F86E
:102D50003830012B16D001628284C2840023C36301
:102D6000212280F8392080F838300168CA6842F0A2
:102D70008002CA60184670470220704701207047E1
:102D8000012070470220704790F83A30DBB2202BC8
:102D900020D109B312B390F83830012B20D08162D2
:102DA0008285C2850023C363222280F83A2080F8FE
:102DB00038300168CA6842F48072CA6001684A69A2
:102DC00042F001024A610168CA6842F02002CA600A
:102DD0001846704702207047012070470120704755
:102DE0000220704708B50168CB6823F04003CB6030
:102DF000202380F8393000F07BFA002008BD08B5A8
:102E000090F83A30DBB2222B45D18368B3F5805F6E
:102E10000ED0036903BB03685A68836A591C816238
:102E20001A70C38D013B9BB2C385F3B1002033E020
:102E3000826A036943B903685B68C3F308031380BC
:102E4000836A02338362ECE703685B68DBB213805A
:102E5000836A01338362E4E703685B68826A511C1A
:102E6000816203F07F031370DBE70268D36823F00D
:102E70002003D3600268D36823F48073D3600268B0
:102E8000536923F001035361202380F83A3000F0A6
:102E90006DFA002000E0022008BD704710B504461E
:102EA00002681368D168526913F00F0005D113F05E
:102EB000200F02D011F0200F53D1002867D012F05C
:102EC000010202D111F4907F61D013F0010F06D0FE
:102ED00011F4807F03D0E06B40F00100E06313F059
:102EE000040F04D01AB1E06B40F00200E06313F06D
:102EF000020F04D01AB1E06B40F00400E06313F05D
:102F0000080F04D01AB1E26B42F00802E263E26BF0
:102F1000002A48D013F0200F02D011F0200F24D146
:102F200023685B6903F04003E26B12F0080F00D1E5
:102F30003BB32046FFF757FC23685A6912F0400F55
:102F40001BD05A6922F040025A61636B8BB11A4A56
:102F50001A65606BFEF766FB28B3606B036D9847DC
:102F600021E02046FFF74BFF1DE02046FFF747FF1B
:102F7000D6E72046FFF791FF15E02046FFF78DFFCB
:102F800011E02046FFF789FF0023E3630BE013F015
:102F9000800F02D011F0800F06D113F0400F02D045
:102FA00011F0400F04D110BD2046FFF72AFCFAE7CC
:102FB0002046FFF717FFF6E7BD2F000808B5806B26
:102FC0000023C385C384FFF768FF08BDF0B58BB04D
:102FD00000240594069407940894099401942D4BB9
:102FE0001A6B42F004021A631A6B02F00402019297
:102FF000019A02941A6B42F080021A631A6B02F073
:1030000080020292029A03941A6B42F001021A6340
:103010001A6B02F001020392039A04941A6B42F0B5
:1030200002021A631B6B03F002030493049B1A4F02
:10303000224620213846FEF7E7FB184E22460121A2
:103040003046FEF7E1FB4FF400530593144B069313
:10305000079405A91348FEF7F9FA202305930125E3
:1030600006950794089405A93846FEF7EFFA0595EA
:1030700006950795089405A93046FEF7E7FA22461B
:1030800021462820FEF776FA2820FEF7A7FA0BB093
:10309000F0BD00BF003802400000024000040240C2
:1030A000000021100008024008B50848084B0360E2
:1030B0004FF4E133436000238360C36003610C225B
:1030C00042618361C361FFF79CFD08BDA436002007
:1030D0000044004008B50848084B03604FF4E13352
:1030E000436000238360C36003610C2242618361FB
:1030F000C361FFF786FD08BD102C002000100140C1
:1031000008B50848084B03604FF4E13343600023DF
:103110008360C36003610C2242618361C361FFF776
:1031200070FD08BDD81E00200048004008B50848C2
:10313000084B03604FF41653436000238360C36061
:1031400003610C2242618361C361FFF75AFD08BD30
:1031500064360020004C004008B50848084B036066
:103160004FF41653436000238360C36003610C2255
:1031700042618361C361FFF744FD08BD243600202E
:103180000014014010B5094C094B23600023636013
:103190007F22A260FF22E26023616361A361204677
:1031A000FFF73BF92046FFF79AF910BD382D0020B4
:1031B0000028004008B50848084B036045F2072383
:1031C0004360002383604CF24F32C260036183612D
:1031D000FFF7EEFA08BD00BFEC21002000440140DB
:1031E00008B50848084B036044F61F63436000239A
:1031F000836041F28732C26003618361FFF7D8FACE
:1032000008BD00BF502C00200048014070B584B0BC
:1032100000250095019502950395104C104B2360F5
:103220004FF480336360A5602561257684F82050D3
:10323000E5620C4BA362E5600126E66184F830503C
:1032400066612046FDF78EFF0423009301960295E8
:1032500069462046FEF7AAF804B070BD182B00207E
:10326000002001400100000F08B51D4B1B68012B19
:1032700004D01C4B5B69012B19D008BD184B0022F0
:103280001A60184B01221A605A609B68002B02DDFD
:10329000144BDB6823B1134A136901331361ECE764
:1032A0004FF47A7310491148FFF7DAFCF3E70D4B3E
:1032B00000225A6001229A6109490A609B68002B2A
:1032C00002DD084BDB6823B1064A13690133136141
:1032D000D3E74FF47A7304310448FFF7C1FCF3E7F6
:1032E000080000202C1900200C000020643600206B
:1032F00008B50268174B9A4200D008BD164BDB692F
:10330000012B14D0144B1B6A012B16D0124B5B6A95
:10331000012B18D0104B9B6A012BEED10E4B0022D3
:103320009A622F220D490E48FFF72EFDE5E707228E
:103330000C490B48FFF728FDE4E707220949084834
:10334000FFF722FDE2E7072207490548FFF71CFDCA
:10335000E0E700BF001001402C190020B831002028
:10336000102C00208C3C0020EC24002070B504467A
:1033700002684B4B9A4208D022684A4B9A4258D076
:10338000494B9C4200F0828070BD484BDB69012BA9
:1033900023D0464B1B6A012B25D0444B5B6A012B83
:1033A00025D0424B1B6B23B9414A92F82E207E2A2E
:1033B00021D1012B27D0012B03D13E4B1B787E2B33
:1033C0002BD03A4D00232B6301262E6206223A4968
:1033D0003A48FFF7B5FC6E63CEE7344B0022DA6162
:1033E0000122DA62C8E7314B00221A62C4E72F4B90
:1033F00000225A62C0E701222C4B1A632D492F4844
:10340000FFF7C2FCB8E72B4A12787E2AD3D00122FC
:1034100028492A48FFF7B8FCAEE7244D00232B6368
:1034200001262E62062224492448FFF789FC6E6398
:10343000A2E71E4B01229A63DA60DB6B93420ED047
:103440001F4A92F83B200A2A9AD0002B98D10122D9
:10345000164BDA631B491C48FFF796FC90E7194BA3
:103460001B780A2B05D0012216491748FFF78CFC60
:1034700086E70E4B0022DA6312490A7001221A64B1
:103480003C220F491048FFF77FFC79E7074B0122E8
:1034900083F844209A640D490D4803F0CEF873E791
:1034A00000100140004C0040243600202C19002060
:1034B000B8310020D01E002010000020102C002069
:1034C000F41D0020F034002064360020041A00208F
:1034D000582D002008B520210348FEF79BF9034B27
:1034E0000122DA6408BD00BF000002402C19002050
:1034F0005E2807D05D2807D0312801D013207047FF
:10350000112070477E2070477D20704730B4454BB6
:1035100000221A65837B2D2B0ED0424B5D6D05F189
:103520000E030024132B0BDCC25C2C2A1DD03E4959
:103530000A5501340133F5E73A4B01225A65ECE7AD
:1035400000200AE003EB83014B00013A002AF9DC7A
:1035500034490A6D13440B650130844207DD324B58
:103560001B5C303B221A013AF0E70020F5E7012D01
:103570000CD02E4B1B69012B0FD0012B1CD0294BDB
:10358000DA6D0132DA65186D30BC7047254B0022C8
:103590005A651A6D52421A65EBE7224A1269092AE6
:1035A000EBDC23481F4950F822300C6D234440F8CF
:1035B000223001320A61E2E71A4B1B690A2BDED185
:1035C0000023184A136115E0164A906D1849194AEC
:1035D00002EB800251F8230007EE900AB8EEE77A7A
:1035E000D2ED007A77EE877AC2ED007A002241F8B8
:1035F00023200133092BE7DD0A498B6D0D4A02EBCD
:103600008302D2ED006A9FED0C7AC6EE877AC2ED96
:10361000007A01338B6500220A60B42BAFD18A6532
:10362000ADE700BF2C190020202800200800002052
:10363000602B00205025002000007A44000000008C
:10364000F8B5194C00232366027843781B0443EA3B
:103650000263827843EA0223C0781843C0F3160558
:1036600045F40005C0F3C7509638FCF723FF41EC42
:10367000110B9FED0B0B00F09BFF57EC106B2846D6
:10368000FCF718FF32463B46FCF77EFFFDF72CFAAD
:103690002066626E054B03EB82031860F8BD00BF25
:1036A00000000000000000402C1900201C32002007
:1036B000F8B51D4C0023A366027843781B0443EA47
:1036C0000263827843EA0223C0781843C0F31605E8
:1036D00045F40005C0F3C7509638FCF7EBFE41EC0B
:1036E000110B9FED0F0B00F063FF57EC106B28469A
:1036F000FCF7E0FE32463B46FCF746FFFDF7F4F9E7
:10370000D4ED187A07EE100A77EE677AC4ED1A7ACC
:10371000626E064B03EB8203C3ED007AF8BD00BF77
:1037200000000000000000402C190020181F00209D
:10373000F8B51F4C0023E366027843781B0443EA84
:103740000263827843EA0223C0781843C0F3160567
:1037500045F40005C0F3C7509638FCF7ABFE41ECCA
:10376000110B9FED110B00F023FF57EC106B284657
:10377000FCF7A0FE32463B46FCF706FFFDF7B4F926
:10378000D4ED1A7A07EE100A77EE677A94ED187A7C
:1037900077EEC77AC4ED1B7A626E064B03EB8203A9
:1037A000C3ED007AF8BD00BF00000000000000403B
:1037B0002C190020B8390020F8B5254C00232367C8
:1037C000027843781B0443EA0263827843EA0223C7
:1037D000C0781843C0F3160545F40005C0F3C75080
:1037E0009638FCF767FE41EC110B9FED170B00F0CC
:1037F000DFFE57EC106B2846FCF75CFE32463B467A
:10380000FCF7C2FEFDF770F9D4ED1B7A07EE100A43
:1038100077EE677A94ED1A7A77EEC77A94ED187A94
:1038200077EEC77AC4ED1C7A636E0A4A02EB830214
:10383000C2ED007A636701336366B42B00D0F8BD34
:1038400000226266FBE700BF0000000000000040AD
:103850002C190020E836002008B5054B01225A61DA
:10386000DA61062203490448FFF76AFA08BD00BF7F
:103870002C19002010000020102C002008B5054B4A
:1038800001225A615A62082203490448FFF758FA94
:1038900008BD00BF2C1900201C000020102C0020A7
:1038A00008B5054B00229A6101229A62062203495B
:1038B0000348FFF745FA08BD2C190020240000201A
:1038C000102C00200000000010B5794B00249C67EC
:1038D000DC67C3F88040C3F884400AE001337449D0
:1038E0008B671344734AD05CFFF702FE724B185586
:1038F0000134032C0ADC621D6D4B9B6FD1186D489F
:10390000415C7D29EAD06C4B1955F1E700240AE0AF
:1039100001326749CA671344664AD05CFFF7E8FD85
:10392000664B18550134032C0DDC04F10903604A81
:10393000916F0B44D26F99185E48415C7D29E7D0A6
:103940005E4B1955EEE700240BE001325849C1F8EF
:1039500080201344574AD05CFFF7CAFD584B1855D6
:103960000134032C10DC04F10D03514A916F0B4418
:10397000D16F0B44D2F8802099184E48415C7D29C4
:10398000E3D04F4B1955EBE700240BE001324849D7
:10399000C1F884201344474AD05CFFF7A9FD494B86
:1039A00018550134032C13DC04F11103404A916FC4
:1039B0000B44D16F0B44D2F880100B44D2F8842012
:1039C00099183C48415C7D29E0D03E4B1955E8E709
:1039D0003948FFF735FE3948FFF76AFE3848FFF7E8
:1039E000A7FE3848FFF7E8FE374C2046FDF7E6FB18
:1039F0000A212046FDF77CFC20B12D4B0122C3F8A3
:103A0000882010BD2046FDF7CEFC80B22F4B1880D9
:103A1000FCF750FD02460B461DA1D1E90001FCF761
:103A2000DDFE00222A4BFCF7F7FBFDF75DF807EE01
:103A3000900A284B1860284B93ED097AC7EE877AD5
:103A400017EE900AFCF748FD41EC100B00F030FD3A
:103A500011A3D3E9002351EC100BFCF7DDFB10A3FD
:103A6000D3E90023FCF7BAFE41EC110B9FED0E0BDE
:103A700000F09EFD51EC100BFDF736F8174B186067
:103A80000B4B5A6F164B03EB82031860B5E700BF70
:103A9000621058397415AD40401361C3D32BB53F44
:103AA00016FBCBEEC9C3DEBF0000000000002440BF
:103AB0002C190020B8310020883C0020142B002055
:103AC000EC1D0020F01D0020182B0020E436002003
:103AD0000000F03FE821002008000020B431002061
:103AE0002C2800202DE9F84F874B0022C3F88C20AA
:103AF000002300E00133F92B12DC844A0021D15469
:103B00000B2BF7DC0A468249CA548249CA548249BF
:103B1000CA548249CA548249CA548249CA54E9E7FC
:103B2000794D286EFCF7D8FC7F4CDFF8E4B10246F3
:103B30000B462146584602F051FDC5F89000A86E8C
:103B4000FCF7CAFCDFF8CCA102460B4621465046E2
:103B500002F044FDC5F89400E86EFCF7BDFCDFF808
:103B6000B89102460B462146484602F037FDC5F89B
:103B70009800286FFCF7B0FCDFF8A08102460B46E6
:103B80002146404602F02AFDC5F89C00AB6D5A1E46
:103B9000664B03EB82031868C5F88C00FCF79CFCAD
:103BA0005F4F02460B462146384602F017FDC5F826
:103BB000A0005F4B1868FCF78FFC5A4E02460B467C
:103BC0002146304602F00AFDC5F8A400D5F8903031
:103BD0009533D5F894201344D5F898201344D5F89C
:103BE0009C201344D5F8A0201344C218C5F8A8207F
:103BF0005049514802F0F2FC444C2046FDF744F98C
:103C0000864600EB040C4D4B07CB4EF80400CCF875
:103C10000410CCF808201B788CF80C300023C5F871
:103C2000AC302046FDF730F953224549204402F0DC
:103C300065F82046FDF728F905460219414B03CBEC
:103C4000285151601B8813815946204602F0E6FC3A
:103C50002046FDF719F9054602193B4B03CB2851C5
:103C6000516019889B78118193725146204602F069
:103C7000D5FC2046FDF708F905460219334B03CB66
:103C8000285151601B8813814946204602F0C6FC2A
:103C90002046FDF7F9F8054602192D4B03CB2851B4
:103CA000516019889B78118193724146204602F039
:103CB000B5FC2046FDF7E8F805460219254B03CB75
:103CC000285151601B8813813946204602F0A6FC1A
:103CD0002046FDF7D9F8054602191F4B03CB2851A2
:103CE000516019889B78118193723146204602F009
:103CF00095FC2046FDF7C8F80219184B19889B78E7
:103D000001539370BDE8F88F2C1900202C2200205D
:103D100028230020FC2A0020882B0020902C002043
:103D200038230020A4310020F07D00085025002019
:103D3000B4310020F87D0008EC340020FC7D000840
:103D40000C7E0008607E00086C7E0008787E00080B
:103D5000847E0008907E00089C7E0008A87E0008F3
:103D600008B5034B0022C3F88C20FFF7BBFE08BD4B
:103D70002C19002030B5ADB0342200211FA801F06D
:103D8000C8FF00241A941B941C941D941E945C225A
:103D9000214603A801F0BDFF0194224B1A6C42F0AA
:103DA00080521A641B6C03F080530193019B0294B0
:103DB0001D4A136823F4404343F48043136013689F
:103DC00003F440430293029B0A231F930123219390
:103DD00022931022239224930225259526940823CA
:103DE00027936423289329952A952B951FA8FEF7DE
:103DF000FBF80F231A931B951C944FF4A0531D93AB
:103E00004FF480531E9303211AA8FDF71BFD2023B6
:103E100003934FF40073139303A8FDF7E5FD2DB052
:103E200030BD00BF003802400070004010B5FDF703
:103E3000D3F8FFF79FFFFFF7C9F8FFF735F9FFF752
:103E400049F9FFF75DF9FFF79DF9FFF7B3F9FFF7C0
:103E5000DDF9FFF7C5F9FFF769F9FFF77DF9384B91
:103E6000384A106818609188927999809A7136481A
:103E7000FEF767FB354C3C2235492046FEF784FFB0
:103E80004FF47A73012233492046FEF7E9FE29E018
:103E9000314B1B68012B29D100242F4B1C642C486B
:103EA000FFF734FB234603E02C4A0021D1540133B1
:103EB000092BF9DD1AE0284B00225A60FFF7CCFCF1
:103EC00018E0254B0022DA62FFF7D8FC16E0FFF776
:103ED000E7FC214BD3F88830012B1DD01E4BDB6C47
:103EE000012B26D01C4B1B6C012BD1D01A4B5B68CD
:103EF000012BE0D0184BDB6A012BE2D0164B9B69FB
:103F0000012BE4D0144B5B6B012BE2D1124B00224E
:103F10005A63FFF7D9FCDCE70F4B0022C3F8882077
:103F2000FFF71EFF6423C8220D490E48FEF798FED6
:103F3000D4E7094B0022DA64FFF712FFD2E700BF93
:103F40000C2B0020587F0008EC2100206436002054
:103F5000F41D00200C0000202C1900202028002037
:103F60002C220020A436002000B583B0002100914F
:103F70000C4B5A6C42F480425A645A6C02F48042F0
:103F80000092009A01911A6C42F080521A641B6CE4
:103F900003F080530193019B0720FDF7D9FA03B08A
:103FA0005DF804FB0038024000B589B0002303939C
:103FB0000493059306930793026803F1804303F586
:103FC00090339A4202D009B05DF804FB00210191C0
:103FD00003F58C335A6C42F480725A645A6C02F4C2
:103FE00080720192019A02911A6B42F001021A63E7
:103FF0001B6B03F001030293029B10230393032323
:10400000049303A90148FDF721FBDCE7000002400F
:1040100000B587B0002301930293039304930593A3
:104020000268114B9A4202D007B05DF804FB0F4BB7
:1040300001221A60002300930D4A116B41F0020126
:104040001163126B02F002020092009A4FF40042D8
:1040500001920222029203930493059301A9054859
:10406000FDF7F4FAE0E700BF002800403C0E4742AD
:10407000003802400004024000B583B00368184ACB
:10408000934205D0174A934216D003B05DF804FB63
:1040900000210091144B5A6C42F400325A645B6C5C
:1040A00003F400330093009B0A461920FDF762FADF
:1040B0001920FDF793FAE8E7002101910A4B5A6CA9
:1040C00042F480225A645B6C03F480230193019BC9
:1040D0000A461A20FDF74EFA1A20FDF77FFAD4E7B8
:1040E0000044014000480140003802402DE9F04101
:1040F00090B000230B930C930D930E930F930368D2
:10410000864A934210D0864A934239D0854A9342D8
:1041100064D0854A934200F08E80844A934200F036
:10412000CF8010B0BDE8F08100240094804B1A6C61
:1041300042F400221A641A6C02F400220092009ADF
:1041400001941A6B42F001021A631B6B03F0010326
:104150000193019B03230B9302220C9201220D92E7
:104160000E9308230F930BA97248FDF76FFA2246AE
:1041700021463420FDF7FEF93420FDF72FFAD0E771
:10418000002402946A4B5A6C42F010025A645A6C32
:1041900002F010020292029A03941A6B42F001029A
:1041A0001A631B6B03F001030393039B4FF4C0637B
:1041B0000B9302230C9301230D9303230E930723E8
:1041C0000F930BA95B48FDF741FA224621462520B3
:1041D000FDF7D0F92520FDF701FAA2E700240494A9
:1041E000534B1A6C42F400321A641A6C02F4003217
:1041F0000492049A05941A6B42F001021A631B6B35
:1042000003F001030593059B0C230B9302230C93EE
:1042100001230D9303230E9307230F930BA9454806
:10422000FDF714FA224621462620FDF7A3F92620A1
:10423000FDF7D4F975E7002406943D4B1A6C42F45F
:1042400080221A641A6C02F480220692069A07945D
:104250001A6B42F004021A631A6B02F0040207920E
:10426000079A08941A6B42F002021A631B6B03F060
:1042700002030893089B20230B934FF00208CDF80C
:10428000308001270D9703260E9607250F950BA961
:104290002948FDF7DBF94FF480630B93CDF83080AC
:1042A0000D970E960F950BA92448FDF7CFF92246DE
:1042B00021462720FDF75EF92720FDF78FF930E72B
:1042C000002409941A4B5A6C42F020025A645A6C2A
:1042D00002F020020992099A0A941A6B42F0040231
:1042E0001A631B6B03F004030A930A9BC0230B930E
:1042F00002230C9301230D9303230E9308230F93A2
:104300000BA90D48FDF7A2F9224621464720FDF7EB
:1043100031F94720FDF762F903E700BF004C004088
:1043200000100140004400400048004000140140DB
:104330000038024000000240000802400004024031
:104340007047FEE7FEE7FEE7FEE7704770477047FD
:1043500008B5FCF75BFE08BD08B50248FEF706F994
:1043600008BD00BFEC21002008B50248FEF7FEF8AA
:1043700008BD00BF502C002008B50248FEF78EFD96
:1043800008BD00BF102C002008B50248FEF786FDCE
:1043900008BD00BFA436002008B50248FEF77EFD28
:1043A00008BD00BFD81E002008B54FF40050FDF72F
:1043B0003BFA08BD08B50248FEF770FD08BD00BF16
:1043C0006436002008B50248FEF768FD08BD00BF4E
:1043D0002436002008B503460B4A126842B10A4A47
:1043E000106803446A46934206D8074A136008BD22
:1043F000054A06491160F2E701F056FC0C23036000
:104400004FF0FF30F3E700BFF0190020F83C002028
:104410000F49D1F8883043F47003C1F888300D4B50
:104420001A6842F001021A60002098601A6822F0AF
:10443000847222F480321A60074A5A601A6822F4A1
:1044400080221A60D8604FF000638B60704700BF15
:1044500000ED00E00038024010300024DFF834D0D6
:10446000002103E00C4B5B58435004310B480C4BCC
:1044700042189A42F6D30B4A02E0002342F8043B6A
:10448000094B9A42F9D3FFF7C3FF01F013FCFFF782
:10449000CDFC704700000220F081000800000020E1
:1044A0001019002010190020F43C0020FEE7000045
:1044B000F0B52DED028B8BB055EC104B00F014FADB
:1044C000364BB0EE408AF0EE608A93F90060731CC0
:1044D0000ED022462B4620462946FCF7EFFA074627
:1044E00030B90022002320462946FCF7C9FA38B922
:1044F000B0EE480AF0EE680A0BB0BDEC028BF0BDDE
:10450000274B0897CDE90245CDE904450193B6B99B
:10451000244F4FF060462046294600220023CDE973
:104520000667FCF799FA88B302230093684601F006
:10453000B3F898B1089BB3B99DED068BD8E71A4B39
:104540000022CDE906232046294600220023FCF75D
:1045500083FA68B102239E420093E7D101F0A4FBE5
:1045600022230360E6E701F09FFB089B0360E3E77B
:104570000123022E00930BD101F096FB212303604F
:104580000A4801F08DF88DED060BD3E70123009367
:10459000684601F081F80028F2D1EDE73C170020D1
:1045A000607F0008FFFFEFC70000F0FF087E0008F3
:1045B0002DE9F04F2DED028BDFF824A38BB057ECE3
:1045C000106B55EC114B00F02FFA9AF90080B0EE09
:1045D000408AF0EE608AB8F1FF3F33D022462B4686
:1045E00020462946FCF76AFA834658BB32463B46CA
:1045F00030463946FCF762FA8146002866D13046DB
:10460000394600220023FCF727FA20B300220023BA
:1046100020462946FCF720FA834600287DD09FEDEE
:10462000A67B0122AA4BCDF820900092CDE902672B
:10463000CDE904458DED067B0193B8F1000F5ED006
:104640009FED9F8BB0EE480AF0EE680A0BB0BDEC10
:10465000028BBDE8F08FB0EE480AF0EE680A01F078
:1046600013F88046002800F082804FF000084FF0D9
:10467000000951EC180B42464B46FCF7EDF90028B7
:10468000E0D047EC106B00F0FFFF0028DAD045ECDB
:10469000104B00F0F9FF0028D4D09AF900308C4A72
:1046A000019204210022022BCDE90267CDE90445E5
:1046B000CDE906890091089203D0684600F0ECFF2E
:1046C00010BB01F0F1FA222303601DE00022002359
:1046D00020462946FCF7C0F90028B3D09FED788B1F
:1046E00001227B4BCDF820B0B8F1020F0092CDE94A
:1046F0000267CDE904458DED068B0193A2D0684693
:1047000000F0CAFF002878D0089B1BB101F0CCFA5A
:10471000089B03609DED068B94E745EC104B00F081
:10472000B3FF00288ED00022002320462946FCF744
:104730009DF9002886D0664A9AF90030CDF820B05D
:104740000121CDE90267CDE90445CDE90012002B36
:1047500058D060490020022BCDE9060156D101F066
:10476000A3FA21230360089B002BD3D0CEE747ECAC
:10477000106B00F089FF00283FF477AF45EC104B39
:1047800000F082FF00283FF470AF53EC182B18EEB6
:10479000100A1946FCF792F99AF9009000286FD197
:1047A0000323DFF82CC108902946204600930022FD
:1047B000494BCDF804C0CDE90445CDE90267FBF7CC
:1047C000E3FE04460D46B9F1000F25D1DFF8149140
:1047D0004FF060480022002330463946CDE9068973
:1047E000FCF744F938BB684600F056FF0028BAD100
:1047F00001F05AFA22230360B5E701F055FA2123AC
:10480000036081E79FED2C7B8DED067B684600F011
:1048100043FF0028A7D1A2E79FED2B7B00220023B6
:10482000304639468DED067BFCF720F9B0B9B9F179
:10483000020FDDD0D7E745EC104B00F039FF2246E0
:104840002B4651EC100BFCF707F9B0B9234B9AF942
:1048500000904FF06042CDE90623E8E745EC104BAD
:1048600000F026FF22462B4651EC100BFCF7F4F823
:1048700018B9184B0022CDE906239AF90090D6E723
:104880000122134BCDF820800092CDE90267CDE9DB
:1048900004450193B9F1000FB4D000220023104663
:1048A0001946FBF79BFFB9F1020FCDE906013FF472
:1048B00056AFABE7AFF3008000000000000000003F
:1048C000000000000000F03F000000000000F07F4A
:1048D000687F00080000F0FF0000E03FFFFFEFC727
:1048E0003C170020FFFFEF472DE9F04355EC104B3C
:1048F000B5F5801F83B02B461FDA25F00042224316
:1049000064D0002D6DDB29460022434B10EE100AC7
:10491000FBF73AFE414A0D462B46934204466FF0A0
:1049200035010FDD22462B4620462946FBF776FC53
:1049300041EC100B03B0BDE8F083384A93424FF0CE
:104940000001EFDC1815A0F2FF3008444FEAD079DF
:104950004844C3F31308FBF7ADFDC9F57F73033378
:1049600048EA035545EC104B06460F4600F0B4FFED
:104970003046394622A3D3E900238DED000BFBF727
:1049800003FE9DED000B04460D461FA3D3E9002353
:1049900051EC100BFBF7F8FD02460B46204629466A
:1049A000FBF73CFC1AA3D3E9002304460D4630462E
:1049B0003946FBF7E9FD02460B4620462946FBF740
:1049C0002DFC41EC100B03B0BDE8F0830022002366
:1049D00000201349FBF702FF41EC100B03B0BDE8C8
:1049E000F08310EE102A20462946FBF715FC002222
:1049F0000023FBF7F3FE41EC100B9BE7AFF30080C5
:104A0000362BF111F3FE593D0EE526157BCBDB3F2E
:104A100000609F501344D33F00005043FFFFEF7FDF
:104A2000000050C3000000002DE9F04F51EC110BC5
:104A300021F0004555EA000393B010D059EC108BDB
:104A40006D4B29F000449C424E4610EE10AA0DDD3D
:104A500004F1404404F5801454EA0A0356D167492E
:104A6000002041EC100B13B0BDE8F08F0F4611EEA3
:104A700010CA48D09D42EBDC5F4B9D425FD0002EB8
:104A8000CDE900015FDB4FF0000BBCF1000F0ED150
:104A9000594B9D4243D0594B9D4200F08C80B7F159
:104AA000804F00F09E80564B9F4200F0B88349EC47
:104AB000108B00F0DFFD51EC100BBAF1000F06D1A6
:104AC000002C5AD04D4B26F040429A4255D0F60F5A
:104AD00006F1FF3A5BEA0A0373D04A4B9D4240F36A
:104AE000998003F104739D4240F33884464B9C4205
:104AF00072DD002F72DD3EA3D3E900231046194674
:104B0000FBF742FDADE7B8F1000F05D03F4813B009
:104B1000BDE8F04F00F0C4BDA542F7DCACE704F1FE
:104B2000404303F5801353EA0A0398D0364B9C4266
:104B300040F37F83002F51DBDDE9000191E7BCF1F9
:104B4000000F9CD084E7324B9D4231DCA3F15473BB
:104B50009D4298DD2B15A3F2FF33142B40F3A18364
:104B6000C3F134032CFA03F202FA03F363458AD14A
:104B700002F00102C2F1020B87E7002F05DA0246BC
:104B80000B4600201D49FBF729FE002EBFF669AF3A
:104B900004F1404404F5801454EA0B0300F03A8415
:104BA000BBF1010F7FF45DAF01F10043194658E7F7
:104BB0004FF0020B69E7002FC0F24483404649469C
:104BC0004FE742464B4610461946FBF725FB024687
:104BD0000B46FBF703FE44E7002F8CDB002000218F
:104BE0003FE742464B4640464946FBF7CDFC38E797
:104BF0009C7500883CE4377E0000F07F0000F03FA9
:104C00000000E03F0000E041FFFFEF3F087E0008AA
:104C1000FFFF3F43B4F5801F80F260830022D04B3A
:104C2000FBF7B2FC6FF034060C462315CD4AC4F3F3
:104C30001304A3F2FF3344F07F559E1994420D965E
:104C400045F4401540F33D83C74B9C4240F301843B
:104C50009FEDAD7B8DED087B8DED107B9FEDAC7BEB
:104C60008DED067B01360D96A5F580154FF00008F9
:104C7000DDE9062329460646FBF7CEFADDE90623E1
:104C8000CDE90A0130462946FBF7C8FA02460B4631
:104C90000020B649FBF7A2FD03460C46CDE90E34D1
:104CA00002460B46DDE90A01FBF76EFC6B1043F090
:104CB000005303F500230A462F46014603EB08057F
:104CC0000023CDE902120293DDE902890024CDE937
:104CD00004122B46224640464946FBF755FC024645
:104CE0000B46DDE90A01FBF797FADDE90623CDE97A
:104CF0000A0120462946FBF78FFA02460B4630464A
:104D00003946FBF789FA42464B46FBF73DFC024623
:104D10000B46DDE90A01FBF77FFADDE90E23FBF71D
:104D200033FCDDE90445CDE9060122462B46204649
:104D30002946FBF729FC78A3D3E9002304460D4656
:104D4000FBF722FC76A3D3E90023FBF767FA2246A0
:104D50002B46FBF719FC74A3D3E90023FBF75EFA9B
:104D600022462B46FBF710FC71A3D3E90023FBF787
:104D700055FA22462B46FBF707FC6FA3D3E9002325
:104D8000FBF74CFA22462B46FBF7FEFB6CA3D3E95C
:104D90000023FBF743FA224606460F462B462046E1
:104DA0002946FBF7F1FB02460B4630463946FBF736
:104DB000EBFB424604460D464B46DDE90401FBF79A
:104DC0002DFADDE90623FBF7DFFB22462B46FBF736
:104DD00025FA424606460F464B4640464946FBF7F3
:104DE000D3FB0022624BCDE90A01FBF717FA3246EA
:104DF0003B46FBF713FA02980D46044622462B4623
:104E000040464946FBF7C0FB002280468946584B86
:104E100020462946FBF700FADDE90A23FBF7FCF9F7
:104E200002460B4630463946FBF7F6F9DDE9042326
:104E3000FBF7AAFB224606460F462B46DDE9060194
:104E4000FBF7A2FB02460B4630463946FBF7E6F974
:104E500006460F4602460B4640464946FBF7DEF93A
:104E6000029839A3D3E9002304460D46FBF78CFBD7
:104E70004246CDE904014B4620462946FBF7CCF9D2
:104E800002460B4630463946FBF7C6F930A3D3E954
:104E90000023FBF779FB30A3D3E9002306460F4636
:104EA00020462946FBF770FB02460B463046394642
:104EB000FBF7B4F9DDE91023FBF7B0F906460D98CE
:104EC0000F46FBF7F7FA3246804689463B46DDE956
:104ED0000401FBF7A3F9DDE90823FBF79FF942463C
:104EE0004B46FBF79BF9029842464B4604460D465B
:104EF000FBF792F9DDE90823FBF78EF9DDE90423DE
:104F000038E000BFAFF300800000000000000000A8
:104F1000000000000000F03FEF4E454A287ECA3FE7
:104F200065DBC9934A86CD3F01411DA96074D13F1D
:104F30004D268F515555D53FFFAB6FDBB66DDB3F2F
:104F4000033333333333E33F000000E009C7EE3F60
:104F5000FD033ADC09C7EE3FF5015B14E02F3EBECE
:104F6000000040438E98030079B60B000000F03F2C
:104F700000000840FBF750F90B4602463946304620
:104F8000FBF74AF90BF1FF3353EA0A03CDE90401B9
:104F900000F05F819FEDD27B8DED027BDDE900AB00
:104FA000002356465F46CDE900670093DDE90067C0
:104FB000504632463B465946FBF72EF922462B46D1
:104FC000FBF7E2FA5246804689465B46DDE904017A
:104FD000FBF7DAFA02460B4640464946FBF71EF954
:104FE0003246804689463B4620462946CDE904891B
:104FF000FBF7CAFA0B46024606460F4640464946AC
:10500000FBF70CF9D04B994204460D468A4640F313
:10501000258101F13F4303F5E003034340F0FE81A6
:10502000B1A3D3E90023DDE90401FBF7F7F8324629
:10503000804689463B4620462946FBF7EDF8024666
:105040000B4640464946FBF72FFD002840F0E6811D
:10505000A8464FEA2853A3F2FE324FF480131341BF
:105060005344C3F30A52B94DA2F2FF321541C3F3C0
:10507000130423EA05010020C2F1140B44F4801448
:10508000BAF1000F02460B4644FA0BFB3046394694
:10509000B8BFCBF1000BFBF7BFF806460F46324610
:1050A000DDE904013B46FBF7B9F84FEA0B5A0D4620
:1050B00000248FA3D3E9002320462946FBF764FA96
:1050C0003246804689463B4620462946FBF7A4F8EF
:1050D00002460B46DDE90401FBF79EF886A3D3E9FF
:1050E0000023FBF751FA86A3D3E9002306460F46B7
:1050F00020462946FBF748FA02460B463046394619
:10510000FBF78CF806460F4602460B4640464946DA
:10511000FBF784F842464B4604460D46FBF77CF805
:1051200002460B4630463946FBF776F82246804663
:1051300089462B4620462946FBF726FA72A3D3E977
:10514000002306460F46FBF71FFA71A3D3E900239D
:10515000FBF762F832463B46FBF716FA6EA3D3E93B
:105160000023FBF75BF832463B46FBF70DFA6CA3D6
:10517000D3E90023FBF750F832463B46FBF704FA2D
:1051800069A3D3E90023FBF749F832463B46FBF716
:10519000FBF902460B4620462946FBF73DF806463A
:1051A0000F4602460B4620462946FBF7EDF9002242
:1051B000CDE900014FF0804330463946FBF72CF82B
:1051C00002460B46DDE90001FBF708FB42460646B6
:1051D0000F464B4620462946FBF7D6F942464B463A
:1051E000FBF71CF802460B4630463946FBF714F82D
:1051F00022462B46FBF710F802460B460020544986
:10520000FBF70AF88A44BAF5801F02460B46C0F243
:1052100030815146DDE90223FBF7B6F921E4002E87
:10522000FFF645AC49EC108B13B0BDE8F04F00F031
:1052300057B9002FBFF6D2ACDDE90034184604F1AF
:1052400000410EE442464B4600204149FBF7C6FAB6
:1052500007E49FED377B8DED027B9FE63D4B21F010
:105260000048984540F3E8803B4B0B4403430AD188
:1052700032463B46FAF7D0FFDDE90423FBF70AFC90
:1052800000283FF4E6AEDDE902012BA3D3E90023B9
:10529000FBF77AF928A3D3E90023FBF775F9FFF7A9
:1052A000E0BBBCF1000F40F0D080C3F1140345FA1D
:1052B00003F202FA03F3AB4200F0E380E346FFF7A8
:1052C000EABB9FED1F7B8DED087B8DED107B9FED85
:1052D000047B4FF000088DED067BC9E40026A4E4B2
:1052E000000000000000F03FFE822B654715973C50
:1052F00000000000432EE63FEF39FAFE422EE63F63
:10530000396CA80C615C20BED0A4BE726937663EC1
:10531000F16BD2C541BDBB3E2CDE25AF6A56113FB5
:1053200093BDBE166CC1663F3E5555555555C53F9C
:10533000000000000000F0BF59F3F8C21F6EA50185
:105340000000000000000000FFFF8F40FFFF0F0083
:105350000000F03FFFCB904000346F3F5C4B9C421D
:105360007FF73AAC5B4B9C423FF7C3AB0022594BF3
:10537000FAF752FF46A3D3E9002304460D46FBF794
:1053800003F945A3D3E900238046894620462946F0
:10539000FBF7FAF80022CDE902014F4B20462946DF
:1053A000FBF7F2F802460B463DA1D1E90001FAF7FE
:1053B00033FF22462B46FBF7E7F802460B46002058
:1053C0004649FAF729FF224606460F462B46204655
:1053D0002946FBF7D9F802460B4630463946FBF71B
:1053E000D3F831A3D3E90023FBF7CEF802460B46EE
:1053F000DDE90201FAF710FF02460B4606460F46AA
:1054000040464946FAF70AFF002004460D46424648
:105410004B46AFE502460B46FFF7D5BBDDE902017F
:1054200023A3D3E90023FBF7AFF821A3D3E900239B
:10543000FBF7AAF8FFF715BB284B98453FF709AED5
:10544000DDE900239246934632E64FF0000BFFF76A
:105450002EBB9FED197B8DED087B9FED197B8DEDAC
:10546000107B9FED197B4FF480288DED067BFFF7B5
:10547000FFBB584643EC102B00F0A2F951EC100B87
:10548000C8E602F00102C2F1020BFFF704BB00BF45
:10549000000000604715F73F44DF5DF80BAE543E57
:1054A000555555555555D53FFE822B654715F73F48
:1054B0009C7500883CE4377E0000004003B8E23F62
:1054C00006D0CF43EBFD4C3E000000000000F83F4B
:1054D000FEFFEF3F0000F03F0000D03F0000E03F44
:1054E0002DE9F041624A57EC106BBA4300F0958009
:1054F000002F3B4610EE101A344654DD3F1500F0E5
:10550000AF80C3F31303A7F2FF3743F48013E20F16
:10551000F90702EB43034FEA440503D5ED0F05EB12
:105520004303A50000267F10B44616224FF4001155
:105530000CEB010098424FEAD5744FEA450503DCB5
:105540001B1A00EB010C0E44013A04EB43034FEA33
:105550005101EDD11046964620244FF0004209E05B
:1055600052D05B00013C03EBD5734FEA52024FEA85
:10557000450536D0634502EB0E01F1DD002901EB54
:10558000020E0ADBE046A3EB0C03A94288BF03F13D
:10559000FF336D1A1044C446E3E7BEF1000FF1DBA0
:1055A0000CF10108EFE727F0004232432AD0002F28
:1055B00049D1CA0A153B4905002AFAD012F48010D5
:1055C00001D050E020465200D50200F10104F9D587
:1055D000C4F1200501FA04F4E9401F1A41EA02036C
:1055E0008FE72B4329D144087110F30701F17F5154
:1055F00001F5001148BF44F0004401EB0753224677
:1056000043EC102BBDE8F081A942AAD8002901EB98
:10561000020EC2DB98460023BBE710EE102A3B4681
:1056200010EE100A3946FAF7AFFF32463B46FAF75A
:10563000F5FD41EC100BBDE8F081421C16BF421C89
:1056400001365408D0E710EE102A30463946FAF7F2
:10565000E3FD02460B46FBF7C1F841EC100BD1E726
:105660001A463B46AAE70C4620254FF0FF30B3E729
:105670000000F07F51EC100B10EE102A21F00043D7
:1056800043EC102B704700BF10EE903A43F00040FF
:1056900000F58010C00F7047002070470000000028
:1056A0009FED010B704700BF000000000000F87F75
:1056B000F0B551EC100BC1F30A55A5F2FF32132AD5
:1056C00083B00B464FEAD17610EE104A2FDC002A49
:1056D0004ADB394D154101EA0507074323D06D0820
:1056E00029400C430CD04FF48021132A23EA0505EE
:1056F00041FA02F343EA05030CBF4FF000440024D3
:105700002E4A02EBC6062046D6E900450246294647
:105710002046FAF783FDCDE9000122462B46DDE95C
:105720000001FAF779FD41EC100B03B0F0BD332A0C
:1057300007DDB2F5806FF6D110EE102AFAF76EFD94
:10574000F1E7A5F213454FF0FF32EA401042EAD0EC
:1057500052081042D4D04FF0804124EA020241FAAC
:1057600005F542EA0504CBE721F000420243DAD016
:10577000C1F3130202435442104D1443240B05EBB2
:10578000C6004F0C04F40021D0E900457F0410EE60
:10579000102A41EA070320462946FAF73FFDCDE9E2
:1057A00000012B462246DDE90001FAF735FD21F024
:1057B000004343EAC671B6E7FFFF0F00707F0008A1
:1057C00038B553EC102BC3F30A511C46054629BBD0
:1057D00010EE101A23F0004421431ED01946002277
:1057E000394B3A4C10EE100AFAF7CEFEA5420246AB
:1057F0000B4636DB0C46C1F30A513639294440F2D8
:10580000FE70814235DC002914DD24F0FF4424F4CD
:10581000E00444EA015343EC102B38BD40F2FF7022
:105820008142EBD110EE100A1946FAF7F7FC41EC71
:10583000100B38BD11F1350F1EDA4CF250318D428C
:1058400043EC112B28DD9FED1C0B00F01FFA1AA36F
:10585000D3E9002351EC100BFAF796FE41EC100B44
:1058600038BD17A3D3E90023FAF78EFE41EC100BE5
:1058700038BD43EC112BE6E724F0FF4424F4E004A8
:10588000363144EA0153104619460022104BFAF70C
:105890007BFE41EC100B38BD9FED090B00F0F6F9D3
:1058A00007A3D3E9002351EC100BFAF76DFE41EC8E
:1058B000100B38BDAFF300809C7500883CE4377E48
:1058C00059F3F8C21F6EA50100005043B03CFFFF22
:1058D0000000903C000000002DE9F04F51EC100B4F
:1058E000B1F5801F85B00B4680F2CE8021F00042DA
:1058F000024300F0D8800029C0F2EA800022DE4B8B
:10590000FAF742FEDD4A0B4693426FF0350700F38B
:10591000C180C3F3130505F5152606F6647606F473
:10592000801686F07F5282F4401242EA05011C156F
:105930000022D34BFAF770FCAB1CA4F2FF34C3F384
:1059400013033C44022B04EB165482468B464FF063
:10595000000240F3B3804FF08043FAF75FFC024649
:105960000B4650465946FAF739FF064620460F4681
:10597000FAF7A0FD3246CDE902013B4630463946F2
:10598000CDE90067FAF700FE02460B4680468946DD
:10599000FAF7FAFDA2A3D3E9002306460F46FAF769
:1059A000F3FDA1A3D3E90023FAF738FC32463B46C6
:1059B000FAF7EAFD9EA3D3E90023FAF72FFC32465B
:1059C0003B46FAF7E1FD9CA3D3E90023FAF726FC56
:1059D00042464B46FAF7D8FD99A3D3E90023804607
:1059E000894630463946FAF7CFFD97A3D3E900231D
:1059F000FAF714FC32463B46FAF7C6FD94A3D3E906
:105A00000023FAF70BFC32463B46FAF7BDFD0B4686
:105A1000024649464046FAF701FCA5F5C223C5F502
:105A2000D725A3F27A4351351D43002D06460F4674
:105A300040F38F800022934B50465946FAF7A4FD5D
:105A400052465B46FAF7A0FD02460B468046894661
:105A500030463946FAF7E2FBDDE90023FAF794FD18
:105A600006460F46002C40F08B8002460B4640460F
:105A70004946FAF7D1FB02460B4650465946FAF71B
:105A8000CBFB41EC100B0BE07C4A93424FF000073C
:105A90007FF73FAF02460B46FAF7C0FB41EC100B15
:105AA00005B0BDE8F08F0022002300207649FAF708
:105AB00095FE41EC100B05B0BDE8F08F0023FAF71E
:105AC000CBFF80B1002C40F084809FED630BE7E7B3
:105AD00010EE102AFAF7A0FB00220023FAF77EFE50
